{
  "_format": "hh-sol-artifact-1",
  "contractName": "IPFSStorage",
  "sourceName": "contracts/IPFSSTORAGE.sol",
  "abi": [
    {
      "anonymous": false,
      "inputs": [
        {
          "indexed": true,
          "internalType": "address",
          "name": "user",
          "type": "address"
        },
        {
          "indexed": false,
          "internalType": "string",
          "name": "cid",
          "type": "string"
        }
      ],
      "name": "CIDStored",
      "type": "event"
    },
    {
      "inputs": [],
      "name": "retrieveCID",
      "outputs": [
        {
          "internalType": "string",
          "name": "",
          "type": "string"
        }
      ],
      "stateMutability": "view",
      "type": "function"
    },
    {
      "inputs": [
        {
          "internalType": "string",
          "name": "_cid",
          "type": "string"
        }
      ],
      "name": "storeCID",
      "outputs": [],
      "stateMutability": "nonpayable",
      "type": "function"
    }
  ],
  "bytecode": "0x608060405234801561001057600080fd5b50610742806100206000396000f3fe608060405234801561001057600080fd5b50600436106100365760003560e01c806316c935de1461003b578063ccfdd32b14610059575b600080fd5b610043610075565b6040516100509190610270565b60405180910390f35b610073600480360381019061006e91906103db565b610143565b005b60606000803373ffffffffffffffffffffffffffffffffffffffff1673ffffffffffffffffffffffffffffffffffffffff16815260200190815260200160002080546100c090610453565b80601f01602080910402602001604051908101604052809291908181526020018280546100ec90610453565b80156101395780601f1061010e57610100808354040283529160200191610139565b820191906000526020600020905b81548152906001019060200180831161011c57829003601f168201915b5050505050905090565b806000803373ffffffffffffffffffffffffffffffffffffffff1673ffffffffffffffffffffffffffffffffffffffff168152602001908152602001600020908161018e919061063a565b503373ffffffffffffffffffffffffffffffffffffffff167fd8a0edc6ade10e42d7ab691902b8c1a635fabe45ace3609fc4fbfad7e424e427826040516101d59190610270565b60405180910390a250565b600081519050919050565b600082825260208201905092915050565b60005b8381101561021a5780820151818401526020810190506101ff565b60008484015250505050565b6000601f19601f8301169050919050565b6000610242826101e0565b61024c81856101eb565b935061025c8185602086016101fc565b61026581610226565b840191505092915050565b6000602082019050818103600083015261028a8184610237565b905092915050565b6000604051905090565b600080fd5b600080fd5b600080fd5b600080fd5b7f4e487b7100000000000000000000000000000000000000000000000000000000600052604160045260246000fd5b6102e882610226565b810181811067ffffffffffffffff82111715610307576103066102b0565b5b80604052505050565b600061031a610292565b905061032682826102df565b919050565b600067ffffffffffffffff821115610346576103456102b0565b5b61034f82610226565b9050602081019050919050565b82818337600083830152505050565b600061037e6103798461032b565b610310565b90508281526020810184848401111561039a576103996102ab565b5b6103a584828561035c565b509392505050565b600082601f8301126103c2576103c16102a6565b5b81356103d284826020860161036b565b91505092915050565b6000602082840312156103f1576103f061029c565b5b600082013567ffffffffffffffff81111561040f5761040e6102a1565b5b61041b848285016103ad565b91505092915050565b7f4e487b7100000000000000000000000000000000000000000000000000000000600052602260045260246000fd5b6000600282049050600182168061046b57607f821691505b60208210810361047e5761047d610424565b5b50919050565b60008190508160005260206000209050919050565b60006020601f8301049050919050565b600082821b905092915050565b6000600883026104e67fffffffffffffffffffffffffffffffffffffffffffffffffffffffffffffffff826104a9565b6104f086836104a9565b95508019841693508086168417925050509392505050565b6000819050919050565b6000819050919050565b600061053761053261052d84610508565b610512565b610508565b9050919050565b6000819050919050565b6105518361051c565b61056561055d8261053e565b8484546104b6565b825550505050565b600090565b61057a61056d565b610585818484610548565b505050565b5b818110156105a95761059e600082610572565b60018101905061058b565b5050565b601f8211156105ee576105bf81610484565b6105c884610499565b810160208510156105d7578190505b6105eb6105e385610499565b83018261058a565b50505b505050565b600082821c905092915050565b6000610611600019846008026105f3565b1980831691505092915050565b600061062a8383610600565b9150826002028217905092915050565b610643826101e0565b67ffffffffffffffff81111561065c5761065b6102b0565b5b6106668254610453565b6106718282856105ad565b600060209050601f8311600181146106a45760008415610692578287015190505b61069c858261061e565b865550610704565b601f1984166106b286610484565b60005b828110156106da578489015182556001820191506020850194506020810190506106b5565b868310156106f757848901516106f3601f891682610600565b8355505b6001600288020188555050505b50505050505056fea2646970667358221220973777d174bfe531dfd979d1c5ab493e6d0a4058897ccf81990843916ba8669d64736f6c63430008110033",
  "linkReferences": {},
  "deployedLinkReferences": {}
}